{
  "_format": "hh-sol-artifact-1",
  "contractName": "BasicDutchAuction",
  "sourceName": "contracts/BasicDutchAuction.sol",
  "abi": [
    {
      "inputs": [
        {
          "internalType": "uint256",
          "name": "_reservePrice",
          "type": "uint256"
        },
        {
          "internalType": "uint256",
          "name": "_numBlocksAuctionOpen",
          "type": "uint256"
        },
        {
          "internalType": "uint256",
          "name": "_offerPriceDecrement",
          "type": "uint256"
        }
      ],
      "stateMutability": "nonpayable",
      "type": "constructor"
    },
    {
      "inputs": [],
      "name": "auctionEndBlock",
      "outputs": [
        {
          "internalType": "uint256",
          "name": "",
          "type": "uint256"
        }
      ],
      "stateMutability": "view",
      "type": "function"
    },
    {
      "inputs": [],
      "name": "auctionEnded",
      "outputs": [
        {
          "internalType": "bool",
          "name": "",
          "type": "bool"
        }
      ],
      "stateMutability": "view",
      "type": "function"
    },
    {
      "inputs": [],
      "name": "bid",
      "outputs": [],
      "stateMutability": "payable",
      "type": "function"
    },
    {
      "inputs": [],
      "name": "currentPrice",
      "outputs": [
        {
          "internalType": "uint256",
          "name": "",
          "type": "uint256"
        }
      ],
      "stateMutability": "view",
      "type": "function"
    },
    {
      "inputs": [],
      "name": "getCurrentPrice",
      "outputs": [
        {
          "internalType": "uint256",
          "name": "",
          "type": "uint256"
        }
      ],
      "stateMutability": "view",
      "type": "function"
    },
    {
      "inputs": [],
      "name": "getWinner",
      "outputs": [
        {
          "internalType": "address",
          "name": "",
          "type": "address"
        }
      ],
      "stateMutability": "view",
      "type": "function"
    },
    {
      "inputs": [],
      "name": "initialBlock",
      "outputs": [
        {
          "internalType": "uint256",
          "name": "",
          "type": "uint256"
        }
      ],
      "stateMutability": "view",
      "type": "function"
    },
    {
      "inputs": [],
      "name": "initialPrice",
      "outputs": [
        {
          "internalType": "uint256",
          "name": "",
          "type": "uint256"
        }
      ],
      "stateMutability": "view",
      "type": "function"
    },
    {
      "inputs": [],
      "name": "numBlocksAuctionOpen",
      "outputs": [
        {
          "internalType": "uint256",
          "name": "",
          "type": "uint256"
        }
      ],
      "stateMutability": "view",
      "type": "function"
    },
    {
      "inputs": [],
      "name": "offerPriceDecrement",
      "outputs": [
        {
          "internalType": "uint256",
          "name": "",
          "type": "uint256"
        }
      ],
      "stateMutability": "view",
      "type": "function"
    },
    {
      "inputs": [],
      "name": "reservePrice",
      "outputs": [
        {
          "internalType": "uint256",
          "name": "",
          "type": "uint256"
        }
      ],
      "stateMutability": "view",
      "type": "function"
    },
    {
      "inputs": [],
      "name": "seller",
      "outputs": [
        {
          "internalType": "address payable",
          "name": "",
          "type": "address"
        }
      ],
      "stateMutability": "view",
      "type": "function"
    },
    {
      "inputs": [],
      "name": "winner",
      "outputs": [
        {
          "internalType": "address payable",
          "name": "",
          "type": "address"
        }
      ],
      "stateMutability": "view",
      "type": "function"
    }
  ],
  "bytecode": "0x60806040523480156200001157600080fd5b5060405162000a7038038062000a70833981810160405281019062000037919062000192565b4360098190555033600560006101000a81548173ffffffffffffffffffffffffffffffffffffffff021916908373ffffffffffffffffffffffffffffffffffffffff16021790555033600660006101000a81548173ffffffffffffffffffffffffffffffffffffffff021916908373ffffffffffffffffffffffffffffffffffffffff1602179055508260008190555080600381905550816001819055508082620000e3919062000245565b83620000f09190620001e8565b6004819055506004546008819055506000600660146101000a81548160ff021916908315150217905550600154436200012a9190620001e8565b6002819055506000600760006101000a81548173ffffffffffffffffffffffffffffffffffffffff021916908373ffffffffffffffffffffffffffffffffffffffff160217905550505050620002f9565b6000815190506200018c81620002df565b92915050565b600080600060608486031215620001a857600080fd5b6000620001b8868287016200017b565b9350506020620001cb868287016200017b565b9250506040620001de868287016200017b565b9150509250925092565b6000620001f582620002a6565b91506200020283620002a6565b9250827fffffffffffffffffffffffffffffffffffffffffffffffffffffffffffffffff038211156200023a5762000239620002b0565b5b828201905092915050565b60006200025282620002a6565b91506200025f83620002a6565b9250817fffffffffffffffffffffffffffffffffffffffffffffffffffffffffffffffff04831182151516156200029b576200029a620002b0565b5b828202905092915050565b6000819050919050565b7f4e487b7100000000000000000000000000000000000000000000000000000000600052601160045260246000fd5b620002ea81620002a6565b8114620002f657600080fd5b50565b61076780620003096000396000f3fe6080604052600436106100c25760003560e01c8063864333741161007f578063d3642a8811610059578063d3642a8814610229578063db2e1eed14610254578063dfbf53ae1461027f578063eb91d37e146102aa576100c2565b806386433374146101a85780638e7ea5b2146101d35780639d1b464a146101fe576100c2565b806307d52fa8146100c757806308551a53146100f25780631998aeef1461011d5780631d0806ae146101275780632cb15864146101525780633103ea621461017d575b600080fd5b3480156100d357600080fd5b506100dc6102d5565b6040516100e991906105c5565b60405180910390f35b3480156100fe57600080fd5b506101076102db565b604051610114919061056f565b60405180910390f35b610125610301565b005b34801561013357600080fd5b5061013c610412565b60405161014991906105c5565b60405180910390f35b34801561015e57600080fd5b50610167610418565b60405161017491906105c5565b60405180910390f35b34801561018957600080fd5b5061019261041e565b60405161019f91906105c5565b60405180910390f35b3480156101b457600080fd5b506101bd610424565b6040516101ca919061058a565b60405180910390f35b3480156101df57600080fd5b506101e8610437565b6040516101f59190610554565b60405180910390f35b34801561020a57600080fd5b50610213610461565b60405161022091906105c5565b60405180910390f35b34801561023557600080fd5b5061023e610467565b60405161024b91906105c5565b60405180910390f35b34801561026057600080fd5b5061026961046d565b60405161027691906105c5565b60405180910390f35b34801561028b57600080fd5b50610294610473565b6040516102a1919061056f565b60405180910390f35b3480156102b657600080fd5b506102bf610499565b6040516102cc91906105c5565b60405180910390f35b60025481565b600660009054906101000a900473ffffffffffffffffffffffffffffffffffffffff1681565b6103096104a3565b34101561034b576040517f08c379a0000000000000000000000000000000000000000000000000000000008152600401610342906105a5565b60405180910390fd5b600660009054906101000a900473ffffffffffffffffffffffffffffffffffffffff1673ffffffffffffffffffffffffffffffffffffffff166108fc349081150290604051600060405180830381858888f193505050501580156103b3573d6000803e3d6000fd5b5033600760006101000a81548173ffffffffffffffffffffffffffffffffffffffff021916908373ffffffffffffffffffffffffffffffffffffffff1602179055506001600660146101000a81548160ff021916908315150217905550565b60045481565b60095481565b60015481565b600660149054906101000a900460ff1681565b6000600760009054906101000a900473ffffffffffffffffffffffffffffffffffffffff16905090565b60085481565b60035481565b60005481565b600760009054906101000a900473ffffffffffffffffffffffffffffffffffffffff1681565b6000600854905090565b600060025443111580156104b957506000543410155b156104ed57600354600954436104cf919061064b565b6104d991906105f1565b6008546104e6919061064b565b6008819055505b600854905090565b6104fe81610691565b82525050565b61050d8161067f565b82525050565b61051c816106a3565b82525050565b600061052f6013836105e0565b915061053a82610708565b602082019050919050565b61054e816106cf565b82525050565b60006020820190506105696000830184610504565b92915050565b600060208201905061058460008301846104f5565b92915050565b600060208201905061059f6000830184610513565b92915050565b600060208201905081810360008301526105be81610522565b9050919050565b60006020820190506105da6000830184610545565b92915050565b600082825260208201905092915050565b60006105fc826106cf565b9150610607836106cf565b9250817fffffffffffffffffffffffffffffffffffffffffffffffffffffffffffffffff04831182151516156106405761063f6106d9565b5b828202905092915050565b6000610656826106cf565b9150610661836106cf565b925082821015610674576106736106d9565b5b828203905092915050565b600061068a826106af565b9050919050565b600061069c826106af565b9050919050565b60008115159050919050565b600073ffffffffffffffffffffffffffffffffffffffff82169050919050565b6000819050919050565b7f4e487b7100000000000000000000000000000000000000000000000000000000600052601160045260246000fd5b7f496e73756666696369656e742066756e64732e0000000000000000000000000060008201525056fea2646970667358221220f8ed152d7bc6b46344393c9c03a60fc16fdeb9d8afddb820337e42e012f75a2264736f6c63430008040033",
  "linkReferences": {},
  "deployedLinkReferences": {}
}